{
  "contractName": "Election",
  "abi": [
    {
      "inputs": [
        {
          "internalType": "uint256",
          "name": "_id",
          "type": "uint256"
        },
        {
          "internalType": "string",
          "name": "_name",
          "type": "string"
        },
        {
          "internalType": "string",
          "name": "_description",
          "type": "string"
        },
        {
          "internalType": "uint256",
          "name": "_startDate",
          "type": "uint256"
        },
        {
          "internalType": "uint256",
          "name": "_endDate",
          "type": "uint256"
        },
        {
          "internalType": "address",
          "name": "_electoralAuthority",
          "type": "address"
        },
        {
          "internalType": "bool",
          "name": "_isPrivate",
          "type": "bool"
        },
        {
          "internalType": "address[]",
          "name": "_authorizedVoters",
          "type": "address[]"
        }
      ],
      "stateMutability": "nonpayable",
      "type": "constructor"
    },
    {
      "anonymous": false,
      "inputs": [
        {
          "indexed": false,
          "internalType": "uint256",
          "name": "candidateId",
          "type": "uint256"
        },
        {
          "indexed": false,
          "internalType": "string",
          "name": "name",
          "type": "string"
        },
        {
          "indexed": false,
          "internalType": "string",
          "name": "program",
          "type": "string"
        }
      ],
      "name": "CandidateAdded",
      "type": "event"
    },
    {
      "anonymous": false,
      "inputs": [
        {
          "indexed": false,
          "internalType": "uint256",
          "name": "electionId",
          "type": "uint256"
        },
        {
          "indexed": false,
          "internalType": "address",
          "name": "voter",
          "type": "address"
        },
        {
          "indexed": false,
          "internalType": "uint256",
          "name": "candidateId",
          "type": "uint256"
        }
      ],
      "name": "Voted",
      "type": "event"
    },
    {
      "inputs": [
        {
          "internalType": "address",
          "name": "",
          "type": "address"
        }
      ],
      "name": "authorizedVoters",
      "outputs": [
        {
          "internalType": "bool",
          "name": "",
          "type": "bool"
        }
      ],
      "stateMutability": "view",
      "type": "function"
    },
    {
      "inputs": [
        {
          "internalType": "uint256",
          "name": "",
          "type": "uint256"
        }
      ],
      "name": "candidates",
      "outputs": [
        {
          "internalType": "uint256",
          "name": "id",
          "type": "uint256"
        },
        {
          "internalType": "string",
          "name": "name",
          "type": "string"
        },
        {
          "internalType": "string",
          "name": "program",
          "type": "string"
        },
        {
          "internalType": "uint256",
          "name": "voteCount",
          "type": "uint256"
        }
      ],
      "stateMutability": "view",
      "type": "function"
    },
    {
      "inputs": [],
      "name": "candidatesCount",
      "outputs": [
        {
          "internalType": "uint256",
          "name": "",
          "type": "uint256"
        }
      ],
      "stateMutability": "view",
      "type": "function"
    },
    {
      "inputs": [],
      "name": "description",
      "outputs": [
        {
          "internalType": "string",
          "name": "",
          "type": "string"
        }
      ],
      "stateMutability": "view",
      "type": "function"
    },
    {
      "inputs": [],
      "name": "electoralAuthority",
      "outputs": [
        {
          "internalType": "address",
          "name": "",
          "type": "address"
        }
      ],
      "stateMutability": "view",
      "type": "function"
    },
    {
      "inputs": [],
      "name": "endDate",
      "outputs": [
        {
          "internalType": "uint256",
          "name": "",
          "type": "uint256"
        }
      ],
      "stateMutability": "view",
      "type": "function"
    },
    {
      "inputs": [],
      "name": "id",
      "outputs": [
        {
          "internalType": "uint256",
          "name": "",
          "type": "uint256"
        }
      ],
      "stateMutability": "view",
      "type": "function"
    },
    {
      "inputs": [],
      "name": "isPrivate",
      "outputs": [
        {
          "internalType": "bool",
          "name": "",
          "type": "bool"
        }
      ],
      "stateMutability": "view",
      "type": "function"
    },
    {
      "inputs": [],
      "name": "name",
      "outputs": [
        {
          "internalType": "string",
          "name": "",
          "type": "string"
        }
      ],
      "stateMutability": "view",
      "type": "function"
    },
    {
      "inputs": [],
      "name": "startDate",
      "outputs": [
        {
          "internalType": "uint256",
          "name": "",
          "type": "uint256"
        }
      ],
      "stateMutability": "view",
      "type": "function"
    },
    {
      "inputs": [
        {
          "internalType": "address",
          "name": "",
          "type": "address"
        }
      ],
      "name": "voters",
      "outputs": [
        {
          "internalType": "uint256",
          "name": "id",
          "type": "uint256"
        },
        {
          "internalType": "string",
          "name": "name",
          "type": "string"
        },
        {
          "internalType": "string",
          "name": "surname",
          "type": "string"
        },
        {
          "internalType": "string",
          "name": "email",
          "type": "string"
        },
        {
          "internalType": "bool",
          "name": "hasVoted",
          "type": "bool"
        }
      ],
      "stateMutability": "view",
      "type": "function"
    },
    {
      "inputs": [],
      "name": "votingSessionOpen",
      "outputs": [
        {
          "internalType": "bool",
          "name": "",
          "type": "bool"
        }
      ],
      "stateMutability": "view",
      "type": "function"
    },
    {
      "inputs": [
        {
          "internalType": "string",
          "name": "_name",
          "type": "string"
        },
        {
          "internalType": "string",
          "name": "_program",
          "type": "string"
        }
      ],
      "name": "addCandidate",
      "outputs": [],
      "stateMutability": "nonpayable",
      "type": "function"
    },
    {
      "inputs": [
        {
          "internalType": "address",
          "name": "_voter",
          "type": "address"
        },
        {
          "internalType": "uint256",
          "name": "_candidateId",
          "type": "uint256"
        },
        {
          "internalType": "string",
          "name": "_name",
          "type": "string"
        },
        {
          "internalType": "string",
          "name": "_surname",
          "type": "string"
        },
        {
          "internalType": "string",
          "name": "_email",
          "type": "string"
        }
      ],
      "name": "vote",
      "outputs": [],
      "stateMutability": "nonpayable",
      "type": "function"
    },
    {
      "inputs": [],
      "name": "getElectionDetails",
      "outputs": [
        {
          "internalType": "string",
          "name": "electionName",
          "type": "string"
        },
        {
          "internalType": "string",
          "name": "electionDescription",
          "type": "string"
        },
        {
          "internalType": "bool",
          "name": "isPrivateElection",
          "type": "bool"
        },
        {
          "internalType": "bool",
          "name": "sessionOpenStatus",
          "type": "bool"
        },
        {
          "internalType": "uint256",
          "name": "startTimestamp",
          "type": "uint256"
        },
        {
          "internalType": "uint256",
          "name": "endTimestamp",
          "type": "uint256"
        }
      ],
      "stateMutability": "view",
      "type": "function"
    }
  ],
  "bytecode": "0x60806040523480156200001157600080fd5b5060405162002009380380620020098339818101604052810190620000379190620003fa565b8484116200007c576040517f08c379a0000000000000000000000000000000000000000000000000000000008152600401620000739062000570565b60405180910390fd5b8760008190555086600190805190602001906200009b929190620001f1565b508560029080519060200190620000b4929190620001f1565b50846004819055508360058190555082600660016101000a81548173ffffffffffffffffffffffffffffffffffffffff021916908373ffffffffffffffffffffffffffffffffffffffff16021790555081600660156101000a81548160ff0219169083151502179055508115620001e35760005b8151811015620001e15760016009600084848151811062000172577f4e487b7100000000000000000000000000000000000000000000000000000000600052603260045260246000fd5b602002602001015173ffffffffffffffffffffffffffffffffffffffff1673ffffffffffffffffffffffffffffffffffffffff16815260200190815260200160002060006101000a81548160ff0219169083151502179055508080620001d890620006ef565b91505062000128565b505b505050505050505062000818565b828054620001ff90620006b9565b90600052602060002090601f0160209004810192826200022357600085556200026f565b82601f106200023e57805160ff19168380011785556200026f565b828001600101855582156200026f579182015b828111156200026e57825182559160200191906001019062000251565b5b5090506200027e919062000282565b5090565b5b808211156200029d57600081600090555060010162000283565b5090565b6000620002b8620002b284620005c6565b62000592565b90508083825260208201905082856020860282011115620002d857600080fd5b60005b858110156200030c5781620002f188826200035b565b845260208401935060208301925050600181019050620002db565b5050509392505050565b60006200032d6200032784620005f5565b62000592565b9050828152602081018484840111156200034657600080fd5b6200035384828562000683565b509392505050565b6000815190506200036c81620007ca565b92915050565b600082601f8301126200038457600080fd5b815162000396848260208601620002a1565b91505092915050565b600081519050620003b081620007e4565b92915050565b600082601f830112620003c857600080fd5b8151620003da84826020860162000316565b91505092915050565b600081519050620003f481620007fe565b92915050565b600080600080600080600080610100898b0312156200041857600080fd5b6000620004288b828c01620003e3565b985050602089015167ffffffffffffffff8111156200044657600080fd5b620004548b828c01620003b6565b975050604089015167ffffffffffffffff8111156200047257600080fd5b620004808b828c01620003b6565b9650506060620004938b828c01620003e3565b9550506080620004a68b828c01620003e3565b94505060a0620004b98b828c016200035b565b93505060c0620004cc8b828c016200039f565b92505060e089015167ffffffffffffffff811115620004ea57600080fd5b620004f88b828c0162000372565b9150509295985092959890939650565b60006200051760378362000628565b91507f4c6120646174652064652066696e20646f69742065747265207375706572696560008301527f7572652061206c6120646174652064652064656275742e0000000000000000006020830152604082019050919050565b600060208201905081810360008301526200058b8162000508565b9050919050565b6000604051905081810181811067ffffffffffffffff82111715620005bc57620005bb6200079b565b5b8060405250919050565b600067ffffffffffffffff821115620005e457620005e36200079b565b5b602082029050602081019050919050565b600067ffffffffffffffff8211156200061357620006126200079b565b5b601f19601f8301169050602081019050919050565b600082825260208201905092915050565b6000620006468262000659565b9050919050565b60008115159050919050565b600073ffffffffffffffffffffffffffffffffffffffff82169050919050565b6000819050919050565b60005b83811015620006a357808201518184015260208101905062000686565b83811115620006b3576000848401525b50505050565b60006002820490506001821680620006d257607f821691505b60208210811415620006e957620006e86200076c565b5b50919050565b6000620006fc8262000679565b91507fffffffffffffffffffffffffffffffffffffffffffffffffffffffffffffffff8214156200073257620007316200073d565b5b600182019050919050565b7f4e487b7100000000000000000000000000000000000000000000000000000000600052601160045260246000fd5b7f4e487b7100000000000000000000000000000000000000000000000000000000600052602260045260246000fd5b7f4e487b7100000000000000000000000000000000000000000000000000000000600052604160045260246000fd5b620007d58162000639565b8114620007e157600080fd5b50565b620007ef816200064d565b8114620007fb57600080fd5b50565b620008098162000679565b81146200081557600080fd5b50565b6117e180620008286000396000f3fe608060405234801561001057600080fd5b50600436106100f55760003560e01c80637284e41611610097578063ddaf2cc211610066578063ddaf2cc21461027f578063e5e796b21461029b578063ed836bc3146102b9578063faff660e146102dc576100f5565b80637284e416146101f1578063a3ec138d1461020f578063af640d0f14610243578063c24a0f8b14610261576100f5565b80632d35a8a2116100d35780632d35a8a2146101525780633477ee2e1461017057806336266ee8146101a357806366acfa4a146101c1576100f5565b806306fdde03146100fa5780630b97bc861461011857806326541b5614610136575b600080fd5b6101026102fa565b60405161010f91906112da565b60405180910390f35b610120610388565b60405161012d919061140b565b60405180910390f35b610150600480360381019061014b919061101d565b61038e565b005b61015a610501565b604051610167919061140b565b60405180910390f35b61018a60048036038101906101859190611089565b610507565b60405161019a949392919061150a565b60405180910390f35b6101ab610647565b6040516101b891906112a4565b60405180910390f35b6101db60048036038101906101d69190610f35565b61066d565b6040516101e891906112bf565b60405180910390f35b6101f961068d565b60405161020691906112da565b60405180910390f35b61022960048036038101906102249190610f35565b61071b565b60405161023a9594939291906114a2565b60405180910390f35b61024b6108f6565b604051610258919061140b565b60405180910390f35b6102696108fc565b604051610276919061140b565b60405180910390f35b61029960048036038101906102949190610f5e565b610902565b005b6102a3610c77565b6040516102b091906112bf565b60405180910390f35b6102c1610c8a565b6040516102d3969594939291906112fc565b60405180910390f35b6102e4610ded565b6040516102f191906112bf565b60405180910390f35b6001805461030790611664565b80601f016020809104026020016040519081016040528092919081815260200182805461033390611664565b80156103805780601f1061035557610100808354040283529160200191610380565b820191906000526020600020905b81548152906001019060200180831161036357829003601f168201915b505050505081565b60045481565b600660019054906101000a900473ffffffffffffffffffffffffffffffffffffffff1673ffffffffffffffffffffffffffffffffffffffff163373ffffffffffffffffffffffffffffffffffffffff161461041e576040517f08c379a00000000000000000000000000000000000000000000000000000000081526004016104159061138b565b60405180910390fd5b6003600081548092919061043190611696565b9190505550604051806080016040528060035481526020018381526020018281526020016000815250600760006003548152602001908152602001600020600082015181600001556020820151816001019080519060200190610495929190610e00565b5060408201518160020190805190602001906104b2929190610e00565b50606082015181600301559050507fe64f834082661dd9ed89427b87edb6270fd6dad17198b0938f0edd058914c87f60035483836040516104f59392919061145d565b60405180910390a15050565b60035481565b600760205280600052604060002060009150905080600001549080600101805461053090611664565b80601f016020809104026020016040519081016040528092919081815260200182805461055c90611664565b80156105a95780601f1061057e576101008083540402835291602001916105a9565b820191906000526020600020905b81548152906001019060200180831161058c57829003601f168201915b5050505050908060020180546105be90611664565b80601f01602080910402602001604051908101604052809291908181526020018280546105ea90611664565b80156106375780601f1061060c57610100808354040283529160200191610637565b820191906000526020600020905b81548152906001019060200180831161061a57829003601f168201915b5050505050908060030154905084565b600660019054906101000a900473ffffffffffffffffffffffffffffffffffffffff1681565b60096020528060005260406000206000915054906101000a900460ff1681565b6002805461069a90611664565b80601f01602080910402602001604051908101604052809291908181526020018280546106c690611664565b80156107135780601f106106e857610100808354040283529160200191610713565b820191906000526020600020905b8154815290600101906020018083116106f657829003601f168201915b505050505081565b600860205280600052604060002060009150905080600001549080600101805461074490611664565b80601f016020809104026020016040519081016040528092919081815260200182805461077090611664565b80156107bd5780601f10610792576101008083540402835291602001916107bd565b820191906000526020600020905b8154815290600101906020018083116107a057829003601f168201915b5050505050908060020180546107d290611664565b80601f01602080910402602001604051908101604052809291908181526020018280546107fe90611664565b801561084b5780601f106108205761010080835404028352916020019161084b565b820191906000526020600020905b81548152906001019060200180831161082e57829003601f168201915b50505050509080600301805461086090611664565b80601f016020809104026020016040519081016040528092919081815260200182805461088c90611664565b80156108d95780601f106108ae576101008083540402835291602001916108d9565b820191906000526020600020905b8154815290600101906020018083116108bc57829003601f168201915b5050505050908060040160009054906101000a900460ff16905085565b60005481565b60055481565b600454421015801561091657506005544211155b610955576040517f08c379a000000000000000000000000000000000000000000000000000000000815260040161094c906113ab565b60405180910390fd5b60008411801561096757506003548411155b6109a6576040517f08c379a000000000000000000000000000000000000000000000000000000000815260040161099d9061136b565b60405180910390fd5b600860008673ffffffffffffffffffffffffffffffffffffffff1673ffffffffffffffffffffffffffffffffffffffff16815260200190815260200160002060040160009054906101000a900460ff1615610a36576040517f08c379a0000000000000000000000000000000000000000000000000000000008152600401610a2d906113cb565b60405180910390fd5b600660159054906101000a900460ff1615610ad857600960008673ffffffffffffffffffffffffffffffffffffffff1673ffffffffffffffffffffffffffffffffffffffff16815260200190815260200160002060009054906101000a900460ff16610ad7576040517f08c379a0000000000000000000000000000000000000000000000000000000008152600401610ace906113eb565b60405180910390fd5b5b6040518060a00160405280600860008873ffffffffffffffffffffffffffffffffffffffff1673ffffffffffffffffffffffffffffffffffffffff16815260200190815260200160002060000154815260200184815260200183815260200182815260200160011515815250600860008773ffffffffffffffffffffffffffffffffffffffff1673ffffffffffffffffffffffffffffffffffffffff168152602001908152602001600020600082015181600001556020820151816001019080519060200190610ba9929190610e00565b506040820151816002019080519060200190610bc6929190610e00565b506060820151816003019080519060200190610be3929190610e00565b5060808201518160040160006101000a81548160ff021916908315150217905550905050600760008581526020019081526020016000206003016000815480929190610c2e90611696565b91905055507f1abe610cf2bf87e57dcc1181fcf5ac0934e843d8344ab9eed6e86c799f62585e6000548686604051610c6893929190611426565b60405180910390a15050505050565b600660009054906101000a900460ff1681565b60608060008060008060016002600660159054906101000a900460ff166004544210158015610cbb57506005544211155b600454600554858054610ccd90611664565b80601f0160208091040260200160405190810160405280929190818152602001828054610cf990611664565b8015610d465780601f10610d1b57610100808354040283529160200191610d46565b820191906000526020600020905b815481529060010190602001808311610d2957829003601f168201915b50505050509550848054610d5990611664565b80601f0160208091040260200160405190810160405280929190818152602001828054610d8590611664565b8015610dd25780601f10610da757610100808354040283529160200191610dd2565b820191906000526020600020905b815481529060010190602001808311610db557829003601f168201915b50505050509450955095509550955095509550909192939495565b600660159054906101000a900460ff1681565b828054610e0c90611664565b90600052602060002090601f016020900481019282610e2e5760008555610e75565b82601f10610e4757805160ff1916838001178555610e75565b82800160010185558215610e75579182015b82811115610e74578251825591602001919060010190610e59565b5b509050610e829190610e86565b5090565b5b80821115610e9f576000816000905550600101610e87565b5090565b6000610eb6610eb18461158e565b61155d565b905082815260208101848484011115610ece57600080fd5b610ed9848285611622565b509392505050565b600081359050610ef08161177d565b92915050565b600082601f830112610f0757600080fd5b8135610f17848260208601610ea3565b91505092915050565b600081359050610f2f81611794565b92915050565b600060208284031215610f4757600080fd5b6000610f5584828501610ee1565b91505092915050565b600080600080600060a08688031215610f7657600080fd5b6000610f8488828901610ee1565b9550506020610f9588828901610f20565b945050604086013567ffffffffffffffff811115610fb257600080fd5b610fbe88828901610ef6565b935050606086013567ffffffffffffffff811115610fdb57600080fd5b610fe788828901610ef6565b925050608086013567ffffffffffffffff81111561100457600080fd5b61101088828901610ef6565b9150509295509295909350565b6000806040838503121561103057600080fd5b600083013567ffffffffffffffff81111561104a57600080fd5b61105685828601610ef6565b925050602083013567ffffffffffffffff81111561107357600080fd5b61107f85828601610ef6565b9150509250929050565b60006020828403121561109b57600080fd5b60006110a984828501610f20565b91505092915050565b6110bb816115da565b82525050565b6110ca816115ec565b82525050565b60006110db826115be565b6110e581856115c9565b93506110f5818560208601611631565b6110fe8161176c565b840191505092915050565b60006111166012836115c9565b91507f43616e646964617420696e76616c6964652e00000000000000000000000000006000830152602082019050919050565b60006111566040836115c9565b91507f5365756c6573206c6573206175746f726974657320656c6563746f72616c657360008301527f2070657576656e742065666665637475657220636574746520616374696f6e2e6020830152604082019050919050565b60006111bc6015836115c9565b91507f456c656374696f6e206e6f6e206f7576657274652e00000000000000000000006000830152602082019050919050565b60006111fc600a836115c9565b91507f44656a6120766f74652e000000000000000000000000000000000000000000006000830152602082019050919050565b600061123c6030836115c9565b91507f4e6f6e206175746f72697365206120766f7465722064616e732063657474652060008301527f656c656374696f6e207072697665652e000000000000000000000000000000006020830152604082019050919050565b61129e81611618565b82525050565b60006020820190506112b960008301846110b2565b92915050565b60006020820190506112d460008301846110c1565b92915050565b600060208201905081810360008301526112f481846110d0565b905092915050565b600060c082019050818103600083015261131681896110d0565b9050818103602083015261132a81886110d0565b905061133960408301876110c1565b61134660608301866110c1565b6113536080830185611295565b61136060a0830184611295565b979650505050505050565b6000602082019050818103600083015261138481611109565b9050919050565b600060208201905081810360008301526113a481611149565b9050919050565b600060208201905081810360008301526113c4816111af565b9050919050565b600060208201905081810360008301526113e4816111ef565b9050919050565b600060208201905081810360008301526114048161122f565b9050919050565b60006020820190506114206000830184611295565b92915050565b600060608201905061143b6000830186611295565b61144860208301856110b2565b6114556040830184611295565b949350505050565b60006060820190506114726000830186611295565b818103602083015261148481856110d0565b9050818103604083015261149881846110d0565b9050949350505050565b600060a0820190506114b76000830188611295565b81810360208301526114c981876110d0565b905081810360408301526114dd81866110d0565b905081810360608301526114f181856110d0565b905061150060808301846110c1565b9695505050505050565b600060808201905061151f6000830187611295565b818103602083015261153181866110d0565b9050818103604083015261154581856110d0565b90506115546060830184611295565b95945050505050565b6000604051905081810181811067ffffffffffffffff821117156115845761158361173d565b5b8060405250919050565b600067ffffffffffffffff8211156115a9576115a861173d565b5b601f19601f8301169050602081019050919050565b600081519050919050565b600082825260208201905092915050565b60006115e5826115f8565b9050919050565b60008115159050919050565b600073ffffffffffffffffffffffffffffffffffffffff82169050919050565b6000819050919050565b82818337600083830152505050565b60005b8381101561164f578082015181840152602081019050611634565b8381111561165e576000848401525b50505050565b6000600282049050600182168061167c57607f821691505b602082108114156116905761168f61170e565b5b50919050565b60006116a182611618565b91507fffffffffffffffffffffffffffffffffffffffffffffffffffffffffffffffff8214156116d4576116d36116df565b5b600182019050919050565b7f4e487b7100000000000000000000000000000000000000000000000000000000600052601160045260246000fd5b7f4e487b7100000000000000000000000000000000000000000000000000000000600052602260045260246000fd5b7f4e487b7100000000000000000000000000000000000000000000000000000000600052604160045260246000fd5b6000601f19601f8301169050919050565b611786816115da565b811461179157600080fd5b50565b61179d81611618565b81146117a857600080fd5b5056fea2646970667358221220af82bde12f45fc1e96c4ffe8cd44204e4125fb7ee74bb86c815d4a0f5063c1ce64736f6c63430008000033",
  "immutableReferences": {},
  "source": "// SPDX-License-Identifier: MIT\npragma solidity ^0.8.0;\n\ncontract EVoting {\n    address public electoralAuthority;\n    uint public electionCount;\n\n    mapping(uint => address) public elections;\n    event ElectionCreated(uint electionId, string name, bool isPrivate);\n\n    constructor() {\n        electoralAuthority = msg.sender;\n    }\n\n    modifier onlyElectoralAuthority() {\n        require(msg.sender == electoralAuthority, \"Seules les autorites electorales peuvent effectuer cette action.\");\n        _;\n    }\n\n    struct Voter {\n        uint id;\n        string name;\n        string surname;\n        string email;\n    }\n\n    function createElection(\n        string memory _name,\n        string memory _description,\n        uint _startDate,\n        uint _endDate,\n        bool _isPrivate,\n        address[] memory _authorizedVoters // Utiliser des adresses ici\n    ) public onlyElectoralAuthority returns (uint) {\n        require(_endDate > _startDate, \"La date de fin doit etre superieure a la date de debut.\");\n        require(_startDate >= block.timestamp, \"La date de debut doit etre dans le futur.\");\n\n        electionCount++;\n\n        // Dployer un nouveau contrat Election\n        Election newElection = new Election(\n            electionCount,\n            _name,\n            _description,\n            _startDate,\n            _endDate,\n            msg.sender,\n            _isPrivate,\n            _authorizedVoters // Passer les adresses des votants autoriss\n        );\n\n        // Vrifier que l'adresse du contrat Election est correcte\n        require(address(newElection) != address(0), \"Erreur lors de la creation de l'election.\");\n\n        elections[electionCount] = address(newElection);\n\n        emit ElectionCreated(electionCount, _name, _isPrivate);\n        return electionCount;\n    }\n\n    function addCandidate(uint _electionId, string memory _name, string memory _program) public onlyElectoralAuthority {\n        require(elections[_electionId] != address(0), \"L'election specifiee n'existe pas.\");\n\n        Election election = Election(elections[_electionId]);\n        election.addCandidate(_name, _program);\n    }\n\n    function vote(\n        uint _electionId,\n        uint _candidateId,\n        address voterAddress,\n        string memory _name,\n        string memory _surname,\n        string memory _email\n    ) public {\n        require(elections[_electionId] != address(0), \"L'election specifiee n'existe pas.\");\n\n        Election election = Election(elections[_electionId]);\n        election.vote(voterAddress, _candidateId, _name, _surname, _email);\n    }\n\n    function getElections() public view returns (\n        uint[] memory, string[] memory, string[] memory, bool[] memory, uint[] memory, uint[] memory, bool[] memory\n    ) {\n        uint[] memory ids = new uint[](electionCount);\n        string[] memory names = new string[](electionCount);\n        string[] memory descriptions = new string[](electionCount);\n        bool[] memory isPrivateElection = new bool[](electionCount);\n        uint[] memory startDates = new uint[](electionCount);\n        uint[] memory endDates = new uint[](electionCount);\n        bool[] memory isOpen = new bool[](electionCount);\n\n        for (uint i = 1; i <= electionCount; i++) {\n            require(elections[i] != address(0), \"L'election n'existe pas.\");\n\n            Election election = Election(elections[i]);\n            (\n                string memory name,\n                string memory description,\n                bool isPrivate_,\n                bool open,\n                uint startDate,\n                uint endDate\n            ) = election.getElectionDetails();\n\n            ids[i-1] = i;\n            names[i-1] = name;\n            descriptions[i-1] = description;\n            isPrivateElection[i-1] = isPrivate_;\n            startDates[i-1] = startDate;\n            endDates[i-1] = endDate;\n            isOpen[i-1] = open;\n        }\n\n        return (ids, names, descriptions, isPrivateElection, startDates, endDates, isOpen);\n    }\n\n    function getOnGoingElections() public view returns (uint[] memory) {\n        uint count = 0;\n        uint[] memory ongoingElections = new uint[](electionCount);\n\n        for (uint i = 1; i <= electionCount; i++) {\n            if (elections[i] == address(0)) continue;\n\n            Election election = Election(elections[i]);\n            (,,, bool open, uint startDate, uint endDate) = election.getElectionDetails();\n\n            if (open && block.timestamp >= startDate && block.timestamp <= endDate) {\n                ongoingElections[count] = i;\n                count++;\n            }\n        }\n\n        uint[] memory result = new uint[](count);\n        for (uint i = 0; i < count; i++) {\n            result[i] = ongoingElections[i];\n        }\n\n        return result;\n    }\n}\n\ncontract Election {\n    struct Candidate {\n        uint id;\n        string name;\n        string program;\n        uint voteCount;\n    }\n\n    struct Voter {\n        uint id;\n        string name;\n        string surname;\n        string email;\n        bool hasVoted;\n    }\n\n    uint public id;\n    string public name;\n    string public description;\n    uint public candidatesCount;\n    uint public startDate;\n    uint public endDate;\n    bool public votingSessionOpen;\n    address public electoralAuthority;\n    bool public isPrivate;\n\n    mapping(uint => Candidate) public candidates;\n    mapping(address => Voter) public voters;\n    mapping(address => bool) public authorizedVoters;\n\n    event CandidateAdded(uint candidateId, string name, string program);\n    event Voted(uint electionId, address voter, uint candidateId);\n\n    constructor(\n        uint _id,\n        string memory _name,\n        string memory _description,\n        uint _startDate,\n        uint _endDate,\n        address _electoralAuthority,\n        bool _isPrivate,\n        address[] memory _authorizedVoters\n    ) {\n        require(_endDate > _startDate, \"La date de fin doit etre superieure a la date de debut.\");\n        id = _id;\n        name = _name;\n        description = _description;\n        startDate = _startDate;\n        endDate = _endDate;\n        electoralAuthority = _electoralAuthority;\n        isPrivate = _isPrivate;\n\n        if (_isPrivate) {\n            for (uint i = 0; i < _authorizedVoters.length; i++) {\n                authorizedVoters[_authorizedVoters[i]] = true; // Utilisation des adresses\n            }\n        }\n    }\n\n    modifier onlyElectoralAuthority() {\n        require(msg.sender == electoralAuthority, \"Seules les autorites electorales peuvent effectuer cette action.\");\n        _;\n    }\n\n    modifier electionOpen() {\n        require(block.timestamp >= startDate && block.timestamp <= endDate, \"Election non ouverte.\");\n        _;\n    }\n\n    function addCandidate(string memory _name, string memory _program) public onlyElectoralAuthority {\n        candidatesCount++;\n        candidates[candidatesCount] = Candidate(candidatesCount, _name, _program, 0);\n        emit CandidateAdded(candidatesCount, _name, _program);\n    }\n\n    function vote(\n        address _voter,\n        uint _candidateId,\n        string memory _name,\n        string memory _surname,\n        string memory _email\n    ) public electionOpen {\n        require(_candidateId > 0 && _candidateId <= candidatesCount, \"Candidat invalide.\");\n        require(!voters[_voter].hasVoted, \"Deja vote.\");\n\n        if (isPrivate) {\n            require(authorizedVoters[_voter], \"Non autorise a voter dans cette election privee.\");\n        }\n\n        voters[_voter] = Voter(voters[_voter].id, _name, _surname, _email, true);\n        candidates[_candidateId].voteCount++;\n\n        emit Voted(id, _voter, _candidateId);\n    }\n\n    function getElectionDetails() public view returns (\n        string memory electionName,\n        string memory electionDescription,\n        bool isPrivateElection,\n        bool sessionOpenStatus,\n        uint startTimestamp,\n        uint endTimestamp\n    ) {\n        return (\n            name,\n            description,\n            isPrivate,\n            block.timestamp >= startDate && block.timestamp <= endDate,\n            startDate,\n            endDate\n        );\n    }\n}",
  "sourcePath": "/home/th3h4cksm1th/Mmoire Licence 3/evoting-app/src/Contract/contracts/Evoting.sol",
  "compiler": {
    "name": "solc",
    "version": "0.8.0+commit.c7dfd78e.Emscripten.clang"
  },
  "schemaVersion": "3.4.16",
  "updatedAt": "2024-10-02T18:07:32.974Z",
  "devdoc": {
    "kind": "dev",
    "methods": {},
    "version": 1
  },
  "userdoc": {
    "kind": "user",
    "methods": {},
    "version": 1
  }
}