{
  "contractName": "EVoting",
  "abi": [
    {
      "inputs": [],
      "stateMutability": "nonpayable",
      "type": "constructor"
    },
    {
      "anonymous": false,
      "inputs": [
        {
          "indexed": false,
          "internalType": "uint256",
          "name": "electionId",
          "type": "uint256"
        },
        {
          "indexed": false,
          "internalType": "uint256",
          "name": "candidateId",
          "type": "uint256"
        },
        {
          "indexed": false,
          "internalType": "string",
          "name": "name",
          "type": "string"
        },
        {
          "indexed": false,
          "internalType": "string",
          "name": "program",
          "type": "string"
        }
      ],
      "name": "CandidateAdded",
      "type": "event"
    },
    {
      "anonymous": false,
      "inputs": [
        {
          "indexed": false,
          "internalType": "uint256",
          "name": "electionId",
          "type": "uint256"
        },
        {
          "indexed": false,
          "internalType": "string",
          "name": "name",
          "type": "string"
        },
        {
          "indexed": false,
          "internalType": "bool",
          "name": "isPrivate",
          "type": "bool"
        },
        {
          "indexed": false,
          "internalType": "uint256",
          "name": "startDate",
          "type": "uint256"
        },
        {
          "indexed": false,
          "internalType": "uint256",
          "name": "endDate",
          "type": "uint256"
        }
      ],
      "name": "ElectionCreated",
      "type": "event"
    },
    {
      "anonymous": false,
      "inputs": [
        {
          "indexed": false,
          "internalType": "uint256",
          "name": "electionId",
          "type": "uint256"
        },
        {
          "indexed": false,
          "internalType": "uint256",
          "name": "voterId",
          "type": "uint256"
        },
        {
          "indexed": false,
          "internalType": "uint256",
          "name": "candidateId",
          "type": "uint256"
        }
      ],
      "name": "Voted",
      "type": "event"
    },
    {
      "inputs": [],
      "name": "electionCount",
      "outputs": [
        {
          "internalType": "uint256",
          "name": "",
          "type": "uint256"
        }
      ],
      "stateMutability": "view",
      "type": "function",
      "constant": true
    },
    {
      "inputs": [
        {
          "internalType": "uint256",
          "name": "",
          "type": "uint256"
        }
      ],
      "name": "elections",
      "outputs": [
        {
          "internalType": "uint256",
          "name": "id",
          "type": "uint256"
        },
        {
          "internalType": "string",
          "name": "name",
          "type": "string"
        },
        {
          "internalType": "string",
          "name": "description",
          "type": "string"
        },
        {
          "internalType": "uint256",
          "name": "startDate",
          "type": "uint256"
        },
        {
          "internalType": "uint256",
          "name": "endDate",
          "type": "uint256"
        },
        {
          "internalType": "bool",
          "name": "isPrivate",
          "type": "bool"
        },
        {
          "internalType": "bool",
          "name": "votingSessionOpen",
          "type": "bool"
        },
        {
          "internalType": "enum EVoting.ElectionStatus",
          "name": "status",
          "type": "uint8"
        }
      ],
      "stateMutability": "view",
      "type": "function",
      "constant": true
    },
    {
      "inputs": [
        {
          "internalType": "uint256",
          "name": "",
          "type": "uint256"
        }
      ],
      "name": "electoralAuthorities",
      "outputs": [
        {
          "internalType": "address",
          "name": "",
          "type": "address"
        }
      ],
      "stateMutability": "view",
      "type": "function",
      "constant": true
    },
    {
      "inputs": [
        {
          "internalType": "address",
          "name": "_newAuthority",
          "type": "address"
        }
      ],
      "name": "addElectoralAuthority",
      "outputs": [],
      "stateMutability": "nonpayable",
      "type": "function"
    },
    {
      "inputs": [
        {
          "internalType": "string",
          "name": "_name",
          "type": "string"
        },
        {
          "internalType": "string",
          "name": "_description",
          "type": "string"
        },
        {
          "internalType": "uint256",
          "name": "_startDate",
          "type": "uint256"
        },
        {
          "internalType": "uint256",
          "name": "_endDate",
          "type": "uint256"
        },
        {
          "internalType": "bool",
          "name": "_isPrivate",
          "type": "bool"
        },
        {
          "components": [
            {
              "internalType": "uint256",
              "name": "id",
              "type": "uint256"
            },
            {
              "internalType": "string",
              "name": "name",
              "type": "string"
            },
            {
              "internalType": "string",
              "name": "surname",
              "type": "string"
            },
            {
              "internalType": "string",
              "name": "email",
              "type": "string"
            },
            {
              "internalType": "bool",
              "name": "hasVoted",
              "type": "bool"
            }
          ],
          "internalType": "struct EVoting.Voter[]",
          "name": "_voters",
          "type": "tuple[]"
        }
      ],
      "name": "createElection",
      "outputs": [
        {
          "internalType": "uint256",
          "name": "",
          "type": "uint256"
        }
      ],
      "stateMutability": "nonpayable",
      "type": "function"
    },
    {
      "inputs": [
        {
          "internalType": "uint256",
          "name": "_electionId",
          "type": "uint256"
        },
        {
          "internalType": "string",
          "name": "_name",
          "type": "string"
        },
        {
          "internalType": "string",
          "name": "_program",
          "type": "string"
        }
      ],
      "name": "addCandidate",
      "outputs": [],
      "stateMutability": "nonpayable",
      "type": "function"
    },
    {
      "inputs": [
        {
          "internalType": "uint256",
          "name": "_electionId",
          "type": "uint256"
        },
        {
          "internalType": "uint256",
          "name": "_candidateId",
          "type": "uint256"
        },
        {
          "internalType": "uint256",
          "name": "_voterId",
          "type": "uint256"
        },
        {
          "internalType": "string",
          "name": "_name",
          "type": "string"
        },
        {
          "internalType": "string",
          "name": "_surname",
          "type": "string"
        },
        {
          "internalType": "string",
          "name": "_email",
          "type": "string"
        }
      ],
      "name": "vote",
      "outputs": [],
      "stateMutability": "nonpayable",
      "type": "function"
    },
    {
      "inputs": [
        {
          "internalType": "uint256",
          "name": "_electionId",
          "type": "uint256"
        }
      ],
      "name": "openVotingSession",
      "outputs": [],
      "stateMutability": "nonpayable",
      "type": "function"
    },
    {
      "inputs": [
        {
          "internalType": "uint256",
          "name": "_electionId",
          "type": "uint256"
        }
      ],
      "name": "closeVotingSession",
      "outputs": [],
      "stateMutability": "nonpayable",
      "type": "function"
    },
    {
      "inputs": [
        {
          "internalType": "uint256",
          "name": "_electionId",
          "type": "uint256"
        }
      ],
      "name": "getElectionDetails",
      "outputs": [
        {
          "internalType": "string",
          "name": "name",
          "type": "string"
        },
        {
          "internalType": "string",
          "name": "description",
          "type": "string"
        },
        {
          "internalType": "bool",
          "name": "isPrivate",
          "type": "bool"
        },
        {
          "internalType": "bool",
          "name": "votingSessionOpen",
          "type": "bool"
        },
        {
          "internalType": "uint256",
          "name": "startDate",
          "type": "uint256"
        },
        {
          "internalType": "uint256",
          "name": "endDate",
          "type": "uint256"
        },
        {
          "components": [
            {
              "internalType": "uint256",
              "name": "id",
              "type": "uint256"
            },
            {
              "internalType": "string",
              "name": "name",
              "type": "string"
            },
            {
              "internalType": "string",
              "name": "program",
              "type": "string"
            },
            {
              "internalType": "uint256",
              "name": "voteCount",
              "type": "uint256"
            }
          ],
          "internalType": "struct EVoting.Candidate[]",
          "name": "candidates",
          "type": "tuple[]"
        },
        {
          "components": [
            {
              "internalType": "uint256",
              "name": "id",
              "type": "uint256"
            },
            {
              "internalType": "string",
              "name": "name",
              "type": "string"
            },
            {
              "internalType": "string",
              "name": "surname",
              "type": "string"
            },
            {
              "internalType": "string",
              "name": "email",
              "type": "string"
            },
            {
              "internalType": "bool",
              "name": "hasVoted",
              "type": "bool"
            }
          ],
          "internalType": "struct EVoting.Voter[]",
          "name": "voters",
          "type": "tuple[]"
        }
      ],
      "stateMutability": "view",
      "type": "function",
      "constant": true
    },
    {
      "inputs": [],
      "name": "getOnGoingElections",
      "outputs": [
        {
          "internalType": "uint256[]",
          "name": "",
          "type": "uint256[]"
        }
      ],
      "stateMutability": "view",
      "type": "function",
      "constant": true
    },
    {
      "inputs": [],
      "name": "getCompletedElections",
      "outputs": [
        {
          "internalType": "uint256[]",
          "name": "",
          "type": "uint256[]"
        }
      ],
      "stateMutability": "view",
      "type": "function",
      "constant": true
    },
    {
      "inputs": [],
      "name": "getCurrentTime",
      "outputs": [
        {
          "internalType": "uint256",
          "name": "",
          "type": "uint256"
        }
      ],
      "stateMutability": "view",
      "type": "function",
      "constant": true
    }
  ],
  "bytecode": "0x608060405234801561001057600080fd5b506000339080600181540180825580915050600190039060005260206000200160009091909190916101000a81548173ffffffffffffffffffffffffffffffffffffffff021916908373ffffffffffffffffffffffffffffffffffffffff16021790555061339c806100836000396000f3fe608060405234801561001057600080fd5b50600436106100cf5760003560e01c806391e3b60d1161008c578063e6c62efc11610066578063e6c62efc14610219578063e8a472b314610235578063f604992414610253578063f9ce860b1461028a576100cf565b806391e3b60d146101af578063997d2830146101df578063cfb9e556146101fd576100cf565b8063020e48a9146100d45780632709b52b1461010457806329cb924d1461012257806336d37575146101405780635e6fef011461015c5780636a7187ed14610193575b600080fd5b6100ee60048036038101906100e99190612268565b6102a6565b6040516100fb9190612b65565b60405180910390f35b61010c6102e5565b6040516101199190612b80565b60405180910390f35b61012a610547565b6040516101379190612d7c565b60405180910390f35b61015a6004803603810190610155919061216e565b61054f565b005b61017660048036038101906101719190612268565b6105fd565b60405161018a989796959493929190612df1565b60405180910390f35b6101ad60048036038101906101a89190612268565b61077c565b005b6101c960048036038101906101c49190612197565b610966565b6040516101d69190612d7c565b60405180910390f35b6101e7610caa565b6040516101f49190612d7c565b60405180910390f35b61021760048036038101906102129190612310565b610cb0565b005b610233600480360381019061022e9190612291565b611335565b005b61023d6114e3565b60405161024a9190612b80565b60405180910390f35b61026d60048036038101906102689190612268565b611661565b604051610281989796959493929190612ba2565b60405180910390f35b6102a4600480360381019061029f9190612268565b611c0e565b005b600081815481106102b657600080fd5b906000526020600020016000915054906101000a900473ffffffffffffffffffffffffffffffffffffffff1681565b6060600080600190505b60015481116103b557600280811115610331577f4e487b7100000000000000000000000000000000000000000000000000000000600052602160045260246000fd5b6002600083815260200190815260200160002060050160029054906101000a900460ff16600281111561038d577f4e487b7100000000000000000000000000000000000000000000000000000000600052602160045260246000fd5b14156103a257818061039e906131f7565b9250505b80806103ad906131f7565b9150506102ef565b5060008167ffffffffffffffff8111156103f8577f4e487b7100000000000000000000000000000000000000000000000000000000600052604160045260246000fd5b6040519080825280602002602001820160405280156104265781602001602082028036833780820191505090505b509050600080600190505b600154811161053d57600280811115610473577f4e487b7100000000000000000000000000000000000000000000000000000000600052602160045260246000fd5b6002600083815260200190815260200160002060050160029054906101000a900460ff1660028111156104cf577f4e487b7100000000000000000000000000000000000000000000000000000000600052602160045260246000fd5b141561052a578083838151811061050f577f4e487b7100000000000000000000000000000000000000000000000000000000600052603260045260246000fd5b6020026020010181815250508180610526906131f7565b9250505b8080610535906131f7565b915050610431565b5081935050505090565b600042905090565b61055833611df8565b610597576040517f08c379a000000000000000000000000000000000000000000000000000000000815260040161058e90612c5c565b60405180910390fd5b6000819080600181540180825580915050600190039060005260206000200160009091909190916101000a81548173ffffffffffffffffffffffffffffffffffffffff021916908373ffffffffffffffffffffffffffffffffffffffff16021790555050565b6002602052806000526040600020600091509050806000015490806001018054610626906131c5565b80601f0160208091040260200160405190810160405280929190818152602001828054610652906131c5565b801561069f5780601f106106745761010080835404028352916020019161069f565b820191906000526020600020905b81548152906001019060200180831161068257829003601f168201915b5050505050908060020180546106b4906131c5565b80601f01602080910402602001604051908101604052809291908181526020018280546106e0906131c5565b801561072d5780601f106107025761010080835404028352916020019161072d565b820191906000526020600020905b81548152906001019060200180831161071057829003601f168201915b5050505050908060030154908060040154908060050160009054906101000a900460ff16908060050160019054906101000a900460ff16908060050160029054906101000a900460ff16905088565b61078533611df8565b6107c4576040517f08c379a00000000000000000000000000000000000000000000000000000000081526004016107bb90612c5c565b60405180910390fd5b8060015481111580156107d75750600081115b610816576040517f08c379a000000000000000000000000000000000000000000000000000000000815260040161080d90612cbc565b60405180910390fd5b600060026000848152602001908152602001600020905060016002811115610867577f4e487b7100000000000000000000000000000000000000000000000000000000600052602160045260246000fd5b8160050160029054906101000a900460ff1660028111156108b1577f4e487b7100000000000000000000000000000000000000000000000000000000600052602160045260246000fd5b146108f1576040517f08c379a00000000000000000000000000000000000000000000000000000000081526004016108e890612c7c565b60405180910390fd5b60008160050160016101000a81548160ff02191690831515021790555060028160050160026101000a81548160ff0219169083600281111561095c577f4e487b7100000000000000000000000000000000000000000000000000000000600052602160045260246000fd5b0217905550505050565b600061097133611df8565b6109b0576040517f08c379a00000000000000000000000000000000000000000000000000000000081526004016109a790612c5c565b60405180910390fd5b8484116109f2576040517f08c379a00000000000000000000000000000000000000000000000000000000081526004016109e990612cdc565b60405180910390fd5b42851015610a35576040517f08c379a0000000000000000000000000000000000000000000000000000000008152600401610a2c90612d1c565b60405180910390fd5b60016000815480929190610a48906131f7565b919050555060006002600060015481526020019081526020016000209050600154816000018190555087816001019080519060200190610a89929190611ecd565b5086816002019080519060200190610aa2929190611ecd565b50858160030181905550848160040181905550838160050160006101000a81548160ff02191690831515021790555060008160050160026101000a81548160ff02191690836002811115610b1f577f4e487b7100000000000000000000000000000000000000000000000000000000600052602160045260246000fd5b021790555060008160050160016101000a81548160ff0219169083151502179055508315610c595760005b8351811015610c575781600701848281518110610b90577f4e487b7100000000000000000000000000000000000000000000000000000000600052603260045260246000fd5b60200260200101519080600181540180825580915050600190039060005260206000209060050201600090919091909150600082015181600001556020820151816001019080519060200190610be7929190611ecd565b506040820151816002019080519060200190610c04929190611ecd565b506060820151816003019080519060200190610c21929190611ecd565b5060808201518160040160006101000a81548160ff02191690831515021790555050508080610c4f906131f7565b915050610b4a565b505b7f8e6f5091ea94cdb7ed6aeceadf400931b9ac3fa785e683f99dac36a8819c7d9960015489868989604051610c92959493929190612d97565b60405180910390a16001549150509695505050505050565b60015481565b856001548111158015610cc35750600081115b610d02576040517f08c379a0000000000000000000000000000000000000000000000000000000008152600401610cf990612cbc565b60405180910390fd5b60006002600089815260200190815260200160002090508060050160019054906101000a900460ff16610d6a576040517f08c379a0000000000000000000000000000000000000000000000000000000008152600401610d6190612c9c565b60405180910390fd5b600087118015610d81575080600601805490508711155b610dc0576040517f08c379a0000000000000000000000000000000000000000000000000000000008152600401610db790612c3c565b60405180910390fd5b8060050160009054906101000a900460ff161561118c576000805b82600701805490508110156111455787836007018281548110610e27577f4e487b7100000000000000000000000000000000000000000000000000000000600052603260045260246000fd5b906000526020600020906005020160000154148015610edd575084604051602001610e529190612b37565b60405160208183030381529060405280519060200120836007018281548110610ea4577f4e487b7100000000000000000000000000000000000000000000000000000000600052603260045260246000fd5b9060005260206000209060050201600301604051602001610ec59190612b4e565b60405160208183030381529060405280519060200120145b8015610f80575086604051602001610ef59190612b37565b60405160208183030381529060405280519060200120836007018281548110610f47577f4e487b7100000000000000000000000000000000000000000000000000000000600052603260045260246000fd5b9060005260206000209060050201600101604051602001610f689190612b4e565b60405160208183030381529060405280519060200120145b8015611023575085604051602001610f989190612b37565b60405160208183030381529060405280519060200120836007018281548110610fea577f4e487b7100000000000000000000000000000000000000000000000000000000600052603260045260246000fd5b906000526020600020906005020160020160405160200161100b9190612b4e565b60405160208183030381529060405280519060200120145b1561113257826007018181548110611064577f4e487b7100000000000000000000000000000000000000000000000000000000600052603260045260246000fd5b906000526020600020906005020160040160009054906101000a900460ff16156110c3576040517f08c379a00000000000000000000000000000000000000000000000000000000081526004016110ba90612cfc565b60405180910390fd5b6001836007018281548110611101577f4e487b7100000000000000000000000000000000000000000000000000000000600052603260045260246000fd5b906000526020600020906005020160040160006101000a81548160ff02191690831515021790555060019150611145565b808061113d906131f7565b915050610ddb565b5080611186576040517f08c379a000000000000000000000000000000000000000000000000000000000815260040161117d90612d3c565b60405180910390fd5b5061127a565b806007016040518060a00160405280600184600701805490506111af919061308c565b815260200187815260200186815260200185815260200160011515815250908060018154018082558091505060019003906000526020600020906005020160009091909190915060008201518160000155602082015181600101908051906020019061121c929190611ecd565b506040820151816002019080519060200190611239929190611ecd565b506060820151816003019080519060200190611256929190611ecd565b5060808201518160040160006101000a81548160ff02191690831515021790555050505b8060060160018861128b91906130e2565b815481106112c2577f4e487b7100000000000000000000000000000000000000000000000000000000600052603260045260246000fd5b906000526020600020906004020160030160008154809291906112e4906131f7565b91905055507f5fe8f1cc066896edbe87bedf2e870c54f6311a7d6668c860949e2e1224a0955e8882600701805490508960405161132393929190612ed0565b60405180910390a15050505050505050565b61133e33611df8565b61137d576040517f08c379a000000000000000000000000000000000000000000000000000000000815260040161137490612c5c565b60405180910390fd5b8260015481111580156113905750600081115b6113cf576040517f08c379a00000000000000000000000000000000000000000000000000000000081526004016113c690612cbc565b60405180910390fd5b600060026000868152602001908152602001600020905080600601604051806080016040528060018460060180549050611409919061308c565b81526020018681526020018581526020016000815250908060018154018082558091505060019003906000526020600020906004020160009091909190915060008201518160000155602082015181600101908051906020019061146e929190611ecd565b50604082015181600201908051906020019061148b929190611ecd565b506060820151816003015550507f503cfceb0fb2178c5fb47ff394c816e4075abc8066c3dcb16d08a76847ee6e1685826006018054905086866040516114d49493929190612e7d565b60405180910390a15050505050565b6060600080600190505b6001548111611541576002600082815260200190815260200160002060050160019054906101000a900460ff161561152e57818061152a906131f7565b9250505b8080611539906131f7565b9150506114ed565b5060008167ffffffffffffffff811115611584577f4e487b7100000000000000000000000000000000000000000000000000000000600052604160045260246000fd5b6040519080825280602002602001820160405280156115b25781602001602082028036833780820191505090505b509050600080600190505b6001548111611657576002600082815260200190815260200160002060050160019054906101000a900460ff16156116445780838381518110611629577f4e487b7100000000000000000000000000000000000000000000000000000000600052603260045260246000fd5b6020026020010181815250508180611640906131f7565b9250505b808061164f906131f7565b9150506115bd565b5081935050505090565b6060806000806000806060808860015481111580156116805750600081115b6116bf576040517f08c379a00000000000000000000000000000000000000000000000000000000081526004016116b690612cbc565b60405180910390fd5b6000600260008c8152602001908152602001600020905080600101816002018260050160009054906101000a900460ff168360050160019054906101000a900460ff16846003015485600401548660060187600701878054611720906131c5565b80601f016020809104026020016040519081016040528092919081815260200182805461174c906131c5565b80156117995780601f1061176e57610100808354040283529160200191611799565b820191906000526020600020905b81548152906001019060200180831161177c57829003601f168201915b505050505097508680546117ac906131c5565b80601f01602080910402602001604051908101604052809291908181526020018280546117d8906131c5565b80156118255780601f106117fa57610100808354040283529160200191611825565b820191906000526020600020905b81548152906001019060200180831161180857829003601f168201915b5050505050965081805480602002602001604051908101604052809291908181526020016000905b828210156119b757838290600052602060002090600402016040518060800160405290816000820154815260200160018201805461188a906131c5565b80601f01602080910402602001604051908101604052809291908181526020018280546118b6906131c5565b80156119035780601f106118d857610100808354040283529160200191611903565b820191906000526020600020905b8154815290600101906020018083116118e657829003601f168201915b5050505050815260200160028201805461191c906131c5565b80601f0160208091040260200160405190810160405280929190818152602001828054611948906131c5565b80156119955780601f1061196a57610100808354040283529160200191611995565b820191906000526020600020905b81548152906001019060200180831161197857829003601f168201915b505050505081526020016003820154815250508152602001906001019061184d565b50505050915080805480602002602001604051908101604052809291908181526020016000905b82821015611beb57838290600052602060002090600502016040518060a001604052908160008201548152602001600182018054611a1b906131c5565b80601f0160208091040260200160405190810160405280929190818152602001828054611a47906131c5565b8015611a945780601f10611a6957610100808354040283529160200191611a94565b820191906000526020600020905b815481529060010190602001808311611a7757829003601f168201915b50505050508152602001600282018054611aad906131c5565b80601f0160208091040260200160405190810160405280929190818152602001828054611ad9906131c5565b8015611b265780601f10611afb57610100808354040283529160200191611b26565b820191906000526020600020905b815481529060010190602001808311611b0957829003601f168201915b50505050508152602001600382018054611b3f906131c5565b80601f0160208091040260200160405190810160405280929190818152602001828054611b6b906131c5565b8015611bb85780601f10611b8d57610100808354040283529160200191611bb8565b820191906000526020600020905b815481529060010190602001808311611b9b57829003601f168201915b505050505081526020016004820160009054906101000a900460ff161515151581525050815260200190600101906119de565b505050509050995099509950995099509950995099505050919395975091939597565b611c1733611df8565b611c56576040517f08c379a0000000000000000000000000000000000000000000000000000000008152600401611c4d90612c5c565b60405180910390fd5b806001548111158015611c695750600081115b611ca8576040517f08c379a0000000000000000000000000000000000000000000000000000000008152600401611c9f90612cbc565b60405180910390fd5b600060026000848152602001908152602001600020905060006002811115611cf9577f4e487b7100000000000000000000000000000000000000000000000000000000600052602160045260246000fd5b8160050160029054906101000a900460ff166002811115611d43577f4e487b7100000000000000000000000000000000000000000000000000000000600052602160045260246000fd5b14611d83576040517f08c379a0000000000000000000000000000000000000000000000000000000008152600401611d7a90612d5c565b60405180910390fd5b60018160050160016101000a81548160ff02191690831515021790555060018160050160026101000a81548160ff02191690836002811115611dee577f4e487b7100000000000000000000000000000000000000000000000000000000600052602160045260246000fd5b0217905550505050565b600080600090505b600080549050811015611ec2578273ffffffffffffffffffffffffffffffffffffffff1660008281548110611e5e577f4e487b7100000000000000000000000000000000000000000000000000000000600052603260045260246000fd5b9060005260206000200160009054906101000a900473ffffffffffffffffffffffffffffffffffffffff1673ffffffffffffffffffffffffffffffffffffffff161415611eaf576001915050611ec8565b8080611eba906131f7565b915050611e00565b50600090505b919050565b828054611ed9906131c5565b90600052602060002090601f016020900481019282611efb5760008555611f42565b82601f10611f1457805160ff1916838001178555611f42565b82800160010185558215611f42579182015b82811115611f41578251825591602001919060010190611f26565b5b509050611f4f9190611f53565b5090565b5b80821115611f6c576000816000905550600101611f54565b5090565b6000611f83611f7e84612f38565b612f07565b9050808382526020820190508260005b85811015611fc35781358501611fa98882612089565b845260208401935060208301925050600181019050611f93565b5050509392505050565b6000611fe0611fdb84612f64565b612f07565b905082815260208101848484011115611ff857600080fd5b612003848285613183565b509392505050565b60008135905061201a81613321565b92915050565b600082601f83011261203157600080fd5b8135612041848260208601611f70565b91505092915050565b60008135905061205981613338565b92915050565b600082601f83011261207057600080fd5b8135612080848260208601611fcd565b91505092915050565b600060a0828403121561209b57600080fd5b6120a560a0612f07565b905060006120b584828501612159565b600083015250602082013567ffffffffffffffff8111156120d557600080fd5b6120e18482850161205f565b602083015250604082013567ffffffffffffffff81111561210157600080fd5b61210d8482850161205f565b604083015250606082013567ffffffffffffffff81111561212d57600080fd5b6121398482850161205f565b606083015250608061214d8482850161204a565b60808301525092915050565b6000813590506121688161334f565b92915050565b60006020828403121561218057600080fd5b600061218e8482850161200b565b91505092915050565b60008060008060008060c087890312156121b057600080fd5b600087013567ffffffffffffffff8111156121ca57600080fd5b6121d689828a0161205f565b965050602087013567ffffffffffffffff8111156121f357600080fd5b6121ff89828a0161205f565b955050604061221089828a01612159565b945050606061222189828a01612159565b935050608061223289828a0161204a565b92505060a087013567ffffffffffffffff81111561224f57600080fd5b61225b89828a01612020565b9150509295509295509295565b60006020828403121561227a57600080fd5b600061228884828501612159565b91505092915050565b6000806000606084860312156122a657600080fd5b60006122b486828701612159565b935050602084013567ffffffffffffffff8111156122d157600080fd5b6122dd8682870161205f565b925050604084013567ffffffffffffffff8111156122fa57600080fd5b6123068682870161205f565b9150509250925092565b60008060008060008060c0878903121561232957600080fd5b600061233789828a01612159565b965050602061234889828a01612159565b955050604061235989828a01612159565b945050606087013567ffffffffffffffff81111561237657600080fd5b61238289828a0161205f565b935050608087013567ffffffffffffffff81111561239f57600080fd5b6123ab89828a0161205f565b92505060a087013567ffffffffffffffff8111156123c857600080fd5b6123d489828a0161205f565b9150509295509295509295565b60006123ed8383612a2b565b905092915050565b60006124018383612a95565b905092915050565b60006124158383612b19565b60208301905092915050565b61242a81613116565b82525050565b600061243b82612fd9565b612445818561302c565b93508360208202850161245785612f94565b8060005b85811015612493578484038952815161247485826123e1565b945061247f83613005565b925060208a0199505060018101905061245b565b50829750879550505050505092915050565b60006124b082612fe4565b6124ba818561303d565b9350836020820285016124cc85612fa4565b8060005b8581101561250857848403895281516124e985826123f5565b94506124f483613012565b925060208a019950506001810190506124d0565b50829750879550505050505092915050565b600061252582612fef565b61252f818561304e565b935061253a83612fb4565b8060005b8381101561256b5781516125528882612409565b975061255d8361301f565b92505060018101905061253e565b5085935050505092915050565b61258181613128565b82525050565b61259081613128565b82525050565b61259f81613171565b82525050565b60006125b082612ffa565b6125ba818561305f565b93506125ca818560208601613192565b6125d3816132fc565b840191505092915050565b60006125e982612ffa565b6125f38185613070565b9350612603818560208601613192565b61260c816132fc565b840191505092915050565b600061262282612ffa565b61262c8185613081565b935061263c818560208601613192565b80840191505092915050565b60008154612655816131c5565b61265f8186613081565b9450600182166000811461267a576001811461268b576126be565b60ff198316865281860193506126be565b61269485612fc4565b60005b838110156126b657815481890152600182019150602081019050612697565b838801955050505b50505092915050565b60006126d4601283613070565b91507f43616e646964617420696e76616c6964652e00000000000000000000000000006000830152602082019050919050565b6000612714604083613070565b91507f5365756c6573206c6573206175746f726974657320656c6563746f72616c657360008301527f2070657576656e742065666665637475657220636574746520616374696f6e2e6020830152604082019050919050565b600061277a601d83613070565b91507f4c27656c656374696f6e206e2765737420706173206f7576657274652e0000006000830152602082019050919050565b60006127ba602583613070565b91507f4c612073657373696f6e20646520766f7465206e2765737420706173206f757660008301527f657274652e0000000000000000000000000000000000000000000000000000006020830152604082019050919050565b6000612820601883613070565b91507f4c27656c656374696f6e206e27657869737465207061732e00000000000000006000830152602082019050919050565b6000612860603783613070565b91507f4c6120646174652064652066696e20646f69742065747265207375706572696560008301527f7572652061206c6120646174652064652064656275742e0000000000000000006020830152604082019050919050565b60006128c6601683613070565b91507f4c6520766f74616e7420612064656a6120766f74652e000000000000000000006000830152602082019050919050565b6000612906602983613070565b91507f4c61206461746520646520646562757420646f697420657472652064616e732060008301527f6c652066757475722e00000000000000000000000000000000000000000000006020830152604082019050919050565b600061296c603083613070565b91507f4e6f6e206175746f72697365206120766f7465722064616e732063657474652060008301527f656c656374696f6e207072697665652e000000000000000000000000000000006020830152604082019050919050565b60006129d2602883613070565b91507f4c27656c656374696f6e206573742064656a61206f757665727465206f75207460008301527f65726d696e65652e0000000000000000000000000000000000000000000000006020830152604082019050919050565b6000608083016000830151612a436000860182612b19565b5060208301518482036020860152612a5b82826125a5565b91505060408301518482036040860152612a7582826125a5565b9150506060830151612a8a6060860182612b19565b508091505092915050565b600060a083016000830151612aad6000860182612b19565b5060208301518482036020860152612ac582826125a5565b91505060408301518482036040860152612adf82826125a5565b91505060608301518482036060860152612af982826125a5565b9150506080830151612b0e6080860182612578565b508091505092915050565b612b2281613167565b82525050565b612b3181613167565b82525050565b6000612b438284612617565b915081905092915050565b6000612b5a8284612648565b915081905092915050565b6000602082019050612b7a6000830184612421565b92915050565b60006020820190508181036000830152612b9a818461251a565b905092915050565b6000610100820190508181036000830152612bbd818b6125de565b90508181036020830152612bd1818a6125de565b9050612be06040830189612587565b612bed6060830188612587565b612bfa6080830187612b28565b612c0760a0830186612b28565b81810360c0830152612c198185612430565b905081810360e0830152612c2d81846124a5565b90509998505050505050505050565b60006020820190508181036000830152612c55816126c7565b9050919050565b60006020820190508181036000830152612c7581612707565b9050919050565b60006020820190508181036000830152612c958161276d565b9050919050565b60006020820190508181036000830152612cb5816127ad565b9050919050565b60006020820190508181036000830152612cd581612813565b9050919050565b60006020820190508181036000830152612cf581612853565b9050919050565b60006020820190508181036000830152612d15816128b9565b9050919050565b60006020820190508181036000830152612d35816128f9565b9050919050565b60006020820190508181036000830152612d558161295f565b9050919050565b60006020820190508181036000830152612d75816129c5565b9050919050565b6000602082019050612d916000830184612b28565b92915050565b600060a082019050612dac6000830188612b28565b8181036020830152612dbe81876125de565b9050612dcd6040830186612587565b612dda6060830185612b28565b612de76080830184612b28565b9695505050505050565b600061010082019050612e07600083018b612b28565b8181036020830152612e19818a6125de565b90508181036040830152612e2d81896125de565b9050612e3c6060830188612b28565b612e496080830187612b28565b612e5660a0830186612587565b612e6360c0830185612587565b612e7060e0830184612596565b9998505050505050505050565b6000608082019050612e926000830187612b28565b612e9f6020830186612b28565b8181036040830152612eb181856125de565b90508181036060830152612ec581846125de565b905095945050505050565b6000606082019050612ee56000830186612b28565b612ef26020830185612b28565b612eff6040830184612b28565b949350505050565b6000604051905081810181811067ffffffffffffffff82111715612f2e57612f2d6132cd565b5b8060405250919050565b600067ffffffffffffffff821115612f5357612f526132cd565b5b602082029050602081019050919050565b600067ffffffffffffffff821115612f7f57612f7e6132cd565b5b601f19601f8301169050602081019050919050565b6000819050602082019050919050565b6000819050602082019050919050565b6000819050602082019050919050565b60008190508160005260206000209050919050565b600081519050919050565b600081519050919050565b600081519050919050565b600081519050919050565b6000602082019050919050565b6000602082019050919050565b6000602082019050919050565b600082825260208201905092915050565b600082825260208201905092915050565b600082825260208201905092915050565b600082825260208201905092915050565b600082825260208201905092915050565b600081905092915050565b600061309782613167565b91506130a283613167565b9250827fffffffffffffffffffffffffffffffffffffffffffffffffffffffffffffffff038211156130d7576130d6613240565b5b828201905092915050565b60006130ed82613167565b91506130f883613167565b92508282101561310b5761310a613240565b5b828203905092915050565b600061312182613147565b9050919050565b60008115159050919050565b60008190506131428261330d565b919050565b600073ffffffffffffffffffffffffffffffffffffffff82169050919050565b6000819050919050565b600061317c82613134565b9050919050565b82818337600083830152505050565b60005b838110156131b0578082015181840152602081019050613195565b838111156131bf576000848401525b50505050565b600060028204905060018216806131dd57607f821691505b602082108114156131f1576131f061329e565b5b50919050565b600061320282613167565b91507fffffffffffffffffffffffffffffffffffffffffffffffffffffffffffffffff82141561323557613234613240565b5b600182019050919050565b7f4e487b7100000000000000000000000000000000000000000000000000000000600052601160045260246000fd5b7f4e487b7100000000000000000000000000000000000000000000000000000000600052602160045260246000fd5b7f4e487b7100000000000000000000000000000000000000000000000000000000600052602260045260246000fd5b7f4e487b7100000000000000000000000000000000000000000000000000000000600052604160045260246000fd5b6000601f19601f8301169050919050565b6003811061331e5761331d61326f565b5b50565b61332a81613116565b811461333557600080fd5b50565b61334181613128565b811461334c57600080fd5b50565b61335881613167565b811461336357600080fd5b5056fea26469706673582212209c9618d9f37f6f08728896f354cfeb49796267e8e1f6e624c804675ebf1ae83164736f6c63430008000033",
  "immutableReferences": {},
  "source": "// SPDX-License-Identifier: MIT\npragma solidity ^0.8.0;\n\ncontract EVoting {\n    address[] public electoralAuthorities;\n    uint public electionCount;\n    enum ElectionStatus { PENDING, OPEN, CLOSED }\n\n    struct Candidate {\n        uint id;\n        string name;\n        string program;\n        uint voteCount;\n    }\n\n    struct Voter {\n        uint id;\n        string name;\n        string surname;\n        string email;\n        bool hasVoted;\n    }\n\n    struct ElectionDetails {\n        uint id;\n        string name;\n        string description;\n        uint startDate;\n        uint endDate;\n        bool isPrivate;\n        bool votingSessionOpen;\n        ElectionStatus status;\n        Candidate[] candidates;\n        Voter[] voters;\n    }\n\n    mapping(uint => ElectionDetails) public elections;\n    event ElectionCreated(uint electionId, string name, bool isPrivate, uint startDate, uint endDate);\n    event CandidateAdded(uint electionId, uint candidateId, string name, string program);\n    event Voted(uint electionId, uint voterId, uint candidateId);\n\n    modifier onlyElectoralAuthority() {\n        require(isElectoralAuthority(msg.sender), \"Seules les autorites electorales peuvent effectuer cette action.\");\n        _;\n    }\n\n    modifier electionExists(uint electionId) {\n        require(electionId <= electionCount && electionId > 0, \"L'election n'existe pas.\");\n        _;\n    }\n\n    constructor() {\n        electoralAuthorities.push(msg.sender);\n    }\n\n    function isElectoralAuthority(address _address) internal view returns (bool) {\n        for (uint i = 0; i < electoralAuthorities.length; i++) {\n            if (electoralAuthorities[i] == _address) {\n                return true;\n            }\n        }\n        return false;\n    }\n\n    function addElectoralAuthority(address _newAuthority) public onlyElectoralAuthority {\n        electoralAuthorities.push(_newAuthority);\n    }\n\n    function createElection(\n        string memory _name,\n        string memory _description,\n        uint _startDate,\n        uint _endDate,\n        bool _isPrivate,\n        Voter[] memory _voters  \n    ) public onlyElectoralAuthority returns (uint) {\n        require(_endDate > _startDate, \"La date de fin doit etre superieure a la date de debut.\");\n        require(_startDate >= block.timestamp, \"La date de debut doit etre dans le futur.\");\n\n        electionCount++;\n        \n        ElectionDetails storage newElection = elections[electionCount];\n        newElection.id = electionCount;\n        newElection.name = _name;\n        newElection.description = _description;\n        newElection.startDate = _startDate;\n        newElection.endDate = _endDate;\n        newElection.isPrivate = _isPrivate;\n        newElection.status = ElectionStatus.PENDING;\n        newElection.votingSessionOpen = false;\n\n        if (_isPrivate) {\n            for (uint i = 0; i < _voters.length; i++) {\n                newElection.voters.push(_voters[i]);\n            }\n        }\n\n        emit ElectionCreated(electionCount, _name, _isPrivate, _startDate, _endDate);\n        return electionCount;\n    }\n\n    function addCandidate(\n        uint _electionId, \n        string memory _name, \n        string memory _program\n    ) public onlyElectoralAuthority electionExists(_electionId) {\n        ElectionDetails storage election = elections[_electionId];\n        election.candidates.push(Candidate(election.candidates.length + 1, _name, _program, 0));\n        \n        emit CandidateAdded(_electionId, election.candidates.length, _name, _program);\n    }\n\n    function vote(\n        uint _electionId,\n        uint _candidateId,\n        uint _voterId,\n        string memory _name,\n        string memory _surname,\n        string memory _email\n    ) public electionExists(_electionId) {\n        ElectionDetails storage election = elections[_electionId];\n\n        require(election.votingSessionOpen, \"La session de vote n'est pas ouverte.\");\n        require(_candidateId > 0 && _candidateId <= election.candidates.length, \"Candidat invalide.\");\n\n        if (election.isPrivate) {\n            bool isAuthorized = false;\n\n            for (uint i = 0; i < election.voters.length; i++) {\n                if (\n                    election.voters[i].id == _voterId &&\n                    keccak256(abi.encodePacked(election.voters[i].email)) == keccak256(abi.encodePacked(_email)) &&\n                    keccak256(abi.encodePacked(election.voters[i].name)) == keccak256(abi.encodePacked(_name)) &&\n                    keccak256(abi.encodePacked(election.voters[i].surname)) == keccak256(abi.encodePacked(_surname))\n                ) {\n                    require(!election.voters[i].hasVoted, \"Le votant a deja vote.\");\n                    election.voters[i].hasVoted = true;\n                    isAuthorized = true;\n                    break;\n                }\n            }\n\n            require(isAuthorized, \"Non autorise a voter dans cette election privee.\");\n        } else {\n            election.voters.push(Voter(election.voters.length + 1, _name, _surname, _email, true));\n        }\n\n        election.candidates[_candidateId - 1].voteCount++;\n\n        emit Voted(_electionId, election.voters.length, _candidateId);\n    }\n\n\n    function openVotingSession(uint _electionId) public onlyElectoralAuthority electionExists(_electionId) {\n        ElectionDetails storage election = elections[_electionId];\n        require(election.status == ElectionStatus.PENDING, \"L'election est deja ouverte ou terminee.\");\n\n        election.votingSessionOpen = true;\n        election.status = ElectionStatus.OPEN;\n    }\n\n    function closeVotingSession(uint _electionId) public onlyElectoralAuthority electionExists(_electionId) {\n        ElectionDetails storage election = elections[_electionId];\n        require(election.status == ElectionStatus.OPEN, \"L'election n'est pas ouverte.\");\n\n        election.votingSessionOpen = false;\n        election.status = ElectionStatus.CLOSED;\n    }\n\n    function getElectionDetails(uint _electionId) public view electionExists(_electionId) returns (\n        string memory name,\n        string memory description,\n        bool isPrivate,\n        bool votingSessionOpen,\n        uint startDate,\n        uint endDate,\n        Candidate[] memory candidates,\n        Voter[] memory voters\n    ) {\n        ElectionDetails storage election = elections[_electionId];\n        return (\n            election.name,\n            election.description,\n            election.isPrivate,\n            election.votingSessionOpen,\n            election.startDate,\n            election.endDate,\n            election.candidates,\n            election.voters\n        );\n    }\n\n    function getOnGoingElections() public view returns (uint[] memory) {\n        uint count = 0;\n        for (uint i = 1; i <= electionCount; i++) {\n            if (elections[i].votingSessionOpen) {\n                count++;\n            }\n        }\n\n        uint[] memory ongoingElections = new uint[](count);\n        uint index = 0;\n        for (uint i = 1; i <= electionCount; i++) {\n            if (elections[i].votingSessionOpen) {\n                ongoingElections[index] = i;\n                index++;\n            }\n        }\n\n        return ongoingElections;\n    }\n\n    function getCompletedElections() public view returns (uint[] memory) {\n        uint count = 0;\n\n        for (uint i = 1; i <= electionCount; i++) {\n            if (elections[i].status == ElectionStatus.CLOSED) {\n                count++;\n            }\n        }\n\n        uint[] memory completedElections = new uint[](count);\n        uint index = 0;\n\n        for (uint i = 1; i <= electionCount; i++) {\n            if (elections[i].status == ElectionStatus.CLOSED) {\n                completedElections[index] = i;\n                index++;\n            }\n        }\n\n        return completedElections;\n    }\n\n    function getCurrentTime()public view returns(uint){\n        return block.timestamp;\n    }\n    \n}\n",
  "sourcePath": "/home/th3h4cksm1th/Mmoire Licence 3/evoting-app/backend/smart-contract/contracts/Evoting.sol",
  "compiler": {
    "name": "solc",
    "version": "0.8.0+commit.c7dfd78e.Emscripten.clang"
  },
  "schemaVersion": "3.4.16",
  "updatedAt": "2024-12-05T01:37:43.445Z",
  "networkType": "ethereum",
  "devdoc": {
    "kind": "dev",
    "methods": {},
    "version": 1
  },
  "userdoc": {
    "kind": "user",
    "methods": {},
    "version": 1
  }
}